{
  "_format": "hh-sol-artifact-1",
  "contractName": "TrustNews",
  "sourceName": "contracts/TrustNews.sol",
  "abi": [
    {
      "inputs": [],
      "stateMutability": "nonpayable",
      "type": "constructor"
    },
    {
      "anonymous": false,
      "inputs": [
        {
          "indexed": true,
          "internalType": "address",
          "name": "validator",
          "type": "address"
        },
        {
          "components": [
            {
              "internalType": "bytes1",
              "name": "hash_function",
              "type": "bytes1"
            },
            {
              "internalType": "bytes1",
              "name": "hash_size",
              "type": "bytes1"
            },
            {
              "internalType": "bytes32",
              "name": "digest",
              "type": "bytes32"
            }
          ],
          "indexed": false,
          "internalType": "struct TrustNews.Multihash",
          "name": "ipfsConfig",
          "type": "tuple"
        }
      ],
      "name": "NewValidatorConfig",
      "type": "event"
    },
    {
      "anonymous": false,
      "inputs": [
        {
          "indexed": false,
          "internalType": "uint256",
          "name": "postId",
          "type": "uint256"
        },
        {
          "components": [
            {
              "internalType": "bytes1",
              "name": "hash_function",
              "type": "bytes1"
            },
            {
              "internalType": "bytes1",
              "name": "hash_size",
              "type": "bytes1"
            },
            {
              "internalType": "bytes32",
              "name": "digest",
              "type": "bytes32"
            }
          ],
          "indexed": false,
          "internalType": "struct TrustNews.Multihash",
          "name": "hash_ipfs",
          "type": "tuple"
        },
        {
          "indexed": false,
          "internalType": "address[][]",
          "name": "validatorAddressesByAsertion",
          "type": "address[][]"
        }
      ],
      "name": "RegisterNewResult",
      "type": "event"
    },
    {
      "anonymous": false,
      "inputs": [
        {
          "indexed": false,
          "internalType": "uint256",
          "name": "postId",
          "type": "uint256"
        },
        {
          "components": [
            {
              "internalType": "bytes1",
              "name": "hash_function",
              "type": "bytes1"
            },
            {
              "internalType": "bytes1",
              "name": "hash_size",
              "type": "bytes1"
            },
            {
              "internalType": "bytes32",
              "name": "digest",
              "type": "bytes32"
            }
          ],
          "indexed": false,
          "internalType": "struct TrustNews.Multihash",
          "name": "postDocument",
          "type": "tuple"
        },
        {
          "indexed": false,
          "internalType": "uint256",
          "name": "asertionIndex",
          "type": "uint256"
        },
        {
          "indexed": true,
          "internalType": "address",
          "name": "validator",
          "type": "address"
        }
      ],
      "name": "ValidationRequested",
      "type": "event"
    },
    {
      "anonymous": false,
      "inputs": [
        {
          "indexed": false,
          "internalType": "uint256",
          "name": "postId",
          "type": "uint256"
        },
        {
          "components": [
            {
              "internalType": "bytes1",
              "name": "hash_function",
              "type": "bytes1"
            },
            {
              "internalType": "bytes1",
              "name": "hash_size",
              "type": "bytes1"
            },
            {
              "internalType": "bytes32",
              "name": "digest",
              "type": "bytes32"
            }
          ],
          "indexed": false,
          "internalType": "struct TrustNews.Multihash",
          "name": "postDocument",
          "type": "tuple"
        },
        {
          "indexed": false,
          "internalType": "uint256",
          "name": "asertionIndex",
          "type": "uint256"
        },
        {
          "indexed": false,
          "internalType": "address",
          "name": "validator",
          "type": "address"
        },
        {
          "components": [
            {
              "internalType": "bytes1",
              "name": "hash_function",
              "type": "bytes1"
            },
            {
              "internalType": "bytes1",
              "name": "hash_size",
              "type": "bytes1"
            },
            {
              "internalType": "bytes32",
              "name": "digest",
              "type": "bytes32"
            }
          ],
          "indexed": false,
          "internalType": "struct TrustNews.Multihash",
          "name": "validationDocument",
          "type": "tuple"
        }
      ],
      "name": "ValidationSubmitted",
      "type": "event"
    },
    {
      "inputs": [
        {
          "internalType": "uint256",
          "name": "id",
          "type": "uint256"
        },
        {
          "internalType": "string",
          "name": "description",
          "type": "string"
        }
      ],
      "name": "addCategory",
      "outputs": [],
      "stateMutability": "nonpayable",
      "type": "function"
    },
    {
      "inputs": [
        {
          "internalType": "uint256",
          "name": "postId",
          "type": "uint256"
        },
        {
          "internalType": "uint256",
          "name": "asertionIndex",
          "type": "uint256"
        },
        {
          "internalType": "enum TrustNews.evaluation",
          "name": "veredict",
          "type": "uint8"
        },
        {
          "components": [
            {
              "internalType": "bytes1",
              "name": "hash_function",
              "type": "bytes1"
            },
            {
              "internalType": "bytes1",
              "name": "hash_size",
              "type": "bytes1"
            },
            {
              "internalType": "bytes32",
              "name": "digest",
              "type": "bytes32"
            }
          ],
          "internalType": "struct TrustNews.Multihash",
          "name": "document",
          "type": "tuple"
        }
      ],
      "name": "addValidation",
      "outputs": [],
      "stateMutability": "nonpayable",
      "type": "function"
    },
    {
      "inputs": [
        {
          "internalType": "uint256",
          "name": "",
          "type": "uint256"
        }
      ],
      "name": "categories",
      "outputs": [
        {
          "internalType": "string",
          "name": "",
          "type": "string"
        }
      ],
      "stateMutability": "view",
      "type": "function"
    },
    {
      "inputs": [
        {
          "internalType": "uint256",
          "name": "postId",
          "type": "uint256"
        }
      ],
      "name": "getAsertionsWithValidations",
      "outputs": [
        {
          "components": [
            {
              "internalType": "uint256",
              "name": "categoryId",
              "type": "uint256"
            },
            {
              "components": [
                {
                  "internalType": "address",
                  "name": "validatorAddress",
                  "type": "address"
                },
                {
                  "internalType": "string",
                  "name": "domain",
                  "type": "string"
                },
                {
                  "internalType": "uint256",
                  "name": "reputation",
                  "type": "uint256"
                },
                {
                  "internalType": "enum TrustNews.evaluation",
                  "name": "veredict",
                  "type": "uint8"
                },
                {
                  "components": [
                    {
                      "internalType": "bytes1",
                      "name": "hash_function",
                      "type": "bytes1"
                    },
                    {
                      "internalType": "bytes1",
                      "name": "hash_size",
                      "type": "bytes1"
                    },
                    {
                      "internalType": "bytes32",
                      "name": "digest",
                      "type": "bytes32"
                    }
                  ],
                  "internalType": "struct TrustNews.Multihash",
                  "name": "document",
                  "type": "tuple"
                },
                {
                  "components": [
                    {
                      "internalType": "bytes1",
                      "name": "hash_function",
                      "type": "bytes1"
                    },
                    {
                      "internalType": "bytes1",
                      "name": "hash_size",
                      "type": "bytes1"
                    },
                    {
                      "internalType": "bytes32",
                      "name": "digest",
                      "type": "bytes32"
                    }
                  ],
                  "internalType": "struct TrustNews.Multihash",
                  "name": "validatorIpfsConfig",
                  "type": "tuple"
                }
              ],
              "internalType": "struct TrustNews.ValidationView[]",
              "name": "validations",
              "type": "tuple[]"
            }
          ],
          "internalType": "struct TrustNews.AsertionView[]",
          "name": "",
          "type": "tuple[]"
        }
      ],
      "stateMutability": "view",
      "type": "function"
    },
    {
      "inputs": [
        {
          "components": [
            {
              "internalType": "bytes1",
              "name": "hash_function",
              "type": "bytes1"
            },
            {
              "internalType": "bytes1",
              "name": "hash_size",
              "type": "bytes1"
            },
            {
              "internalType": "bytes32",
              "name": "digest",
              "type": "bytes32"
            }
          ],
          "internalType": "struct TrustNews.Multihash",
          "name": "hash_cid",
          "type": "tuple"
        }
      ],
      "name": "getNewByCid",
      "outputs": [
        {
          "internalType": "uint256",
          "name": "",
          "type": "uint256"
        }
      ],
      "stateMutability": "view",
      "type": "function"
    },
    {
      "inputs": [
        {
          "internalType": "uint256",
          "name": "postId",
          "type": "uint256"
        }
      ],
      "name": "getPostFlat",
      "outputs": [
        {
          "components": [
            {
              "internalType": "bytes1",
              "name": "hash_function",
              "type": "bytes1"
            },
            {
              "internalType": "bytes1",
              "name": "hash_size",
              "type": "bytes1"
            },
            {
              "internalType": "bytes32",
              "name": "digest",
              "type": "bytes32"
            }
          ],
          "internalType": "struct TrustNews.Multihash",
          "name": "document",
          "type": "tuple"
        },
        {
          "internalType": "address",
          "name": "publisher",
          "type": "address"
        }
      ],
      "stateMutability": "view",
      "type": "function"
    },
    {
      "inputs": [
        {
          "internalType": "uint256",
          "name": "categoryId",
          "type": "uint256"
        }
      ],
      "name": "getValidatorsByCategory",
      "outputs": [
        {
          "internalType": "address[]",
          "name": "",
          "type": "address[]"
        }
      ],
      "stateMutability": "view",
      "type": "function"
    },
    {
      "inputs": [],
      "name": "getValidatorsWithConfig",
      "outputs": [
        {
          "internalType": "address[]",
          "name": "validatorAddresses",
          "type": "address[]"
        },
        {
          "components": [
            {
              "internalType": "bytes1",
              "name": "hash_function",
              "type": "bytes1"
            },
            {
              "internalType": "bytes1",
              "name": "hash_size",
              "type": "bytes1"
            },
            {
              "internalType": "bytes32",
              "name": "digest",
              "type": "bytes32"
            }
          ],
          "internalType": "struct TrustNews.Multihash[]",
          "name": "ipfsConfigs",
          "type": "tuple[]"
        }
      ],
      "stateMutability": "view",
      "type": "function"
    },
    {
      "inputs": [],
      "name": "owner",
      "outputs": [
        {
          "internalType": "address",
          "name": "",
          "type": "address"
        }
      ],
      "stateMutability": "view",
      "type": "function"
    },
    {
      "inputs": [],
      "name": "postCounter",
      "outputs": [
        {
          "internalType": "uint256",
          "name": "",
          "type": "uint256"
        }
      ],
      "stateMutability": "view",
      "type": "function"
    },
    {
      "inputs": [
        {
          "internalType": "uint256",
          "name": "",
          "type": "uint256"
        }
      ],
      "name": "postsById",
      "outputs": [
        {
          "components": [
            {
              "internalType": "bytes1",
              "name": "hash_function",
              "type": "bytes1"
            },
            {
              "internalType": "bytes1",
              "name": "hash_size",
              "type": "bytes1"
            },
            {
              "internalType": "bytes32",
              "name": "digest",
              "type": "bytes32"
            }
          ],
          "internalType": "struct TrustNews.Multihash",
          "name": "document",
          "type": "tuple"
        },
        {
          "internalType": "address",
          "name": "publisher",
          "type": "address"
        }
      ],
      "stateMutability": "view",
      "type": "function"
    },
    {
      "inputs": [
        {
          "internalType": "bytes32",
          "name": "",
          "type": "bytes32"
        }
      ],
      "name": "postsCid",
      "outputs": [
        {
          "internalType": "uint256",
          "name": "",
          "type": "uint256"
        }
      ],
      "stateMutability": "view",
      "type": "function"
    },
    {
      "inputs": [
        {
          "components": [
            {
              "internalType": "bytes1",
              "name": "hash_function",
              "type": "bytes1"
            },
            {
              "internalType": "bytes1",
              "name": "hash_size",
              "type": "bytes1"
            },
            {
              "internalType": "bytes32",
              "name": "digest",
              "type": "bytes32"
            }
          ],
          "internalType": "struct TrustNews.Multihash",
          "name": "hash_ipfs",
          "type": "tuple"
        },
        {
          "internalType": "uint256[]",
          "name": "categoryIds",
          "type": "uint256[]"
        }
      ],
      "name": "registerNew",
      "outputs": [
        {
          "internalType": "uint256",
          "name": "postId",
          "type": "uint256"
        },
        {
          "internalType": "address[][]",
          "name": "validatorAddressesByAsertion",
          "type": "address[][]"
        }
      ],
      "stateMutability": "nonpayable",
      "type": "function"
    },
    {
      "inputs": [
        {
          "internalType": "string",
          "name": "domain",
          "type": "string"
        },
        {
          "internalType": "uint256[]",
          "name": "categoryIds",
          "type": "uint256[]"
        },
        {
          "components": [
            {
              "internalType": "bytes1",
              "name": "hash_function",
              "type": "bytes1"
            },
            {
              "internalType": "bytes1",
              "name": "hash_size",
              "type": "bytes1"
            },
            {
              "internalType": "bytes32",
              "name": "digest",
              "type": "bytes32"
            }
          ],
          "internalType": "struct TrustNews.Multihash",
          "name": "ipfsConfig",
          "type": "tuple"
        }
      ],
      "name": "registerValidator",
      "outputs": [],
      "stateMutability": "nonpayable",
      "type": "function"
    },
    {
      "inputs": [],
      "name": "unregisterValidator",
      "outputs": [],
      "stateMutability": "nonpayable",
      "type": "function"
    },
    {
      "inputs": [
        {
          "components": [
            {
              "internalType": "bytes1",
              "name": "hash_function",
              "type": "bytes1"
            },
            {
              "internalType": "bytes1",
              "name": "hash_size",
              "type": "bytes1"
            },
            {
              "internalType": "bytes32",
              "name": "digest",
              "type": "bytes32"
            }
          ],
          "internalType": "struct TrustNews.Multihash",
          "name": "ipfsConfig",
          "type": "tuple"
        }
      ],
      "name": "updateValidatorConfig",
      "outputs": [],
      "stateMutability": "nonpayable",
      "type": "function"
    },
    {
      "inputs": [
        {
          "internalType": "address",
          "name": "",
          "type": "address"
        },
        {
          "internalType": "uint256",
          "name": "",
          "type": "uint256"
        }
      ],
      "name": "validatorCategories",
      "outputs": [
        {
          "internalType": "uint256",
          "name": "",
          "type": "uint256"
        }
      ],
      "stateMutability": "view",
      "type": "function"
    },
    {
      "inputs": [
        {
          "internalType": "address",
          "name": "",
          "type": "address"
        }
      ],
      "name": "validators",
      "outputs": [
        {
          "internalType": "string",
          "name": "domain",
          "type": "string"
        },
        {
          "internalType": "uint256",
          "name": "reputation",
          "type": "uint256"
        },
        {
          "internalType": "bool",
          "name": "exists",
          "type": "bool"
        },
        {
          "components": [
            {
              "internalType": "bytes1",
              "name": "hash_function",
              "type": "bytes1"
            },
            {
              "internalType": "bytes1",
              "name": "hash_size",
              "type": "bytes1"
            },
            {
              "internalType": "bytes32",
              "name": "digest",
              "type": "bytes32"
            }
          ],
          "internalType": "struct TrustNews.Multihash",
          "name": "ipfsConfig",
          "type": "tuple"
        }
      ],
      "stateMutability": "view",
      "type": "function"
    },
    {
      "inputs": [
        {
          "internalType": "uint256",
          "name": "",
          "type": "uint256"
        },
        {
          "internalType": "uint256",
          "name": "",
          "type": "uint256"
        }
      ],
      "name": "validatorsByCategory",
      "outputs": [
        {
          "internalType": "address",
          "name": "",
          "type": "address"
        }
      ],
      "stateMutability": "view",
      "type": "function"
    },
    {
      "inputs": [
        {
          "internalType": "uint256",
          "name": "",
          "type": "uint256"
        }
      ],
      "name": "validatorsIndex",
      "outputs": [
        {
          "internalType": "address",
          "name": "",
          "type": "address"
        }
      ],
      "stateMutability": "view",
      "type": "function"
    }
  ],
  "bytecode": "0x6080604052348015600f57600080fd5b50336000806101000a81548173ffffffffffffffffffffffffffffffffffffffff021916908373ffffffffffffffffffffffffffffffffffffffff1602179055506141aa8061005f6000396000f3fe608060405234801561001057600080fd5b506004361061012c5760003560e01c8063b26d721d116100ad578063e951c28611610071578063e951c2861461037d578063eb5b8465146103ae578063f3737746146103cd578063fa52c7d8146103fd578063fd92894a146104305761012c565b8063b26d721d146102a0578063c3c664e7146102d0578063c6cdbe5e146102ec578063d95dbf341461031c578063e4f9a7941461034d5761012c565b8063695362a2116100f4578063695362a2146101e85780636ca56267146102185780638da5cb5b146102225780639760d2b214610240578063a27a7d36146102705761012c565b806309b3d75e146101315780632955aeea1461014f57806334dffd551461016b5780635d5581c51461019c5780635fab66e6146101b8575b600080fd5b61013961044c565b6040516101469190612938565b60405180910390f35b61016960048036038101906101649190612aea565b610452565b005b61018560048036038101906101809190612b43565b6105c4565b604051610193929190612c11565b60405180910390f35b6101b660048036038101906101b19190612cf4565b6106d2565b005b6101d260048036038101906101cd9190612b43565b6107e7565b6040516101df91906130f1565b60405180910390f35b61020260048036038101906101fd919061313f565b610ccc565b60405161020f9190612938565b60405180910390f35b610220610cfd565b005b61022a6111fb565b604051610237919061317f565b60405180910390f35b61025a60048036038101906102559190612b43565b61121f565b6040516102679190613249565b60405180910390f35b61028a60048036038101906102859190612aea565b6112c0565b6040516102979190612938565b60405180910390f35b6102ba60048036038101906102b5919061326b565b6112e1565b6040516102c7919061317f565b60405180910390f35b6102ea60048036038101906102e59190613373565b61132f565b005b61030660048036038101906103019190612b43565b611809565b6040516103139190613448565b60405180910390f35b6103366004803603810190610331919061346a565b6118a9565b6040516103449291906135f7565b60405180910390f35b61036760048036038101906103629190612b43565b611cbe565b604051610374919061317f565b60405180910390f35b61039760048036038101906103929190612b43565b611cfd565b6040516103a5929190612c11565b60405180910390f35b6103b6611e1e565b6040516103c49291906136d6565b60405180910390f35b6103e760048036038101906103e2919061370d565b6121c9565b6040516103f49190612938565b60405180910390f35b6104176004803603810190610412919061373a565b6121e1565b6040516104279493929190613782565b60405180910390f35b61044a600480360381019061044591906137f3565b612370565b005b60015481565b600260003373ffffffffffffffffffffffffffffffffffffffff1673ffffffffffffffffffffffffffffffffffffffff16815260200190815260200160002060020160009054906101000a900460ff166104e1576040517f08c379a00000000000000000000000000000000000000000000000000000000081526004016104d8906138a6565b60405180910390fd5b80600260003373ffffffffffffffffffffffffffffffffffffffff1673ffffffffffffffffffffffffffffffffffffffff16815260200190815260200160002060030160008201518160000160006101000a81548160ff021916908360f81c021790555060208201518160000160016101000a81548160ff021916908360f81c0217905550604082015181600101559050503373ffffffffffffffffffffffffffffffffffffffff167f4dba80a63e9f609bd613fb8b745f40a3d8b63c2a5c6ef3ec8ef984225a7b8642826040516105b991906138c6565b60405180910390a250565b6008602052806000526040600020600091509050806001016040518060600160405290816000820160009054906101000a900460f81b7effffffffffffffffffffffffffffffffffffffffffffffffffffffffffffff19167effffffffffffffffffffffffffffffffffffffffffffffffffffffffffffff191681526020016000820160019054906101000a900460f81b7effffffffffffffffffffffffffffffffffffffffffffffffffffffffffffff19167effffffffffffffffffffffffffffffffffffffffffffffffffffffffffffff19168152602001600182015481525050908060030160009054906101000a900473ffffffffffffffffffffffffffffffffffffffff16905082565b60008054906101000a900473ffffffffffffffffffffffffffffffffffffffff1673ffffffffffffffffffffffffffffffffffffffff163373ffffffffffffffffffffffffffffffffffffffff1614610760576040517f08c379a00000000000000000000000000000000000000000000000000000000081526004016107579061392d565b60405180910390fd5b60006007600084815260200190815260200160002080546107809061397c565b9050146107c2576040517f08c379a00000000000000000000000000000000000000000000000000000000081526004016107b9906139f9565b60405180910390fd5b806007600084815260200190815260200160002090816107e29190613bc5565b505050565b6060600060086000848152602001908152602001600020905060008160000180549050905060008167ffffffffffffffff8111156108285761082761297d565b5b60405190808252806020026020018201604052801561086157816020015b61084e612768565b8152602001906001900390816108465790505b50905060005b82811015610cc057600084600001828154811061088757610886613c97565b5b9060005260206000209060030201905060008160010180549050905060008167ffffffffffffffff8111156108bf576108be61297d565b5b6040519080825280602002602001820160405280156108f857816020015b6108e5612782565b8152602001906001900390816108dd5790505b50905060005b82811015610c7857600084600101828154811061091e5761091d613c97565b5b906000526020600020906003020190506000600260008360000160009054906101000a900473ffffffffffffffffffffffffffffffffffffffff1673ffffffffffffffffffffffffffffffffffffffff1673ffffffffffffffffffffffffffffffffffffffff16815260200190815260200160002090506040518060c001604052808360000160009054906101000a900473ffffffffffffffffffffffffffffffffffffffff1673ffffffffffffffffffffffffffffffffffffffff1681526020018260000180546109ef9061397c565b80601f0160208091040260200160405190810160405280929190818152602001828054610a1b9061397c565b8015610a685780601f10610a3d57610100808354040283529160200191610a68565b820191906000526020600020905b815481529060010190602001808311610a4b57829003601f168201915b50505050508152602001826001015481526020018360000160149054906101000a900460ff166002811115610aa057610a9f612e45565b5b8152602001836001016040518060600160405290816000820160009054906101000a900460f81b7effffffffffffffffffffffffffffffffffffffffffffffffffffffffffffff19167effffffffffffffffffffffffffffffffffffffffffffffffffffffffffffff191681526020016000820160019054906101000a900460f81b7effffffffffffffffffffffffffffffffffffffffffffffffffffffffffffff19167effffffffffffffffffffffffffffffffffffffffffffffffffffffffffffff191681526020016001820154815250508152602001826003016040518060600160405290816000820160009054906101000a900460f81b7effffffffffffffffffffffffffffffffffffffffffffffffffffffffffffff19167effffffffffffffffffffffffffffffffffffffffffffffffffffffffffffff191681526020016000820160019054906101000a900460f81b7effffffffffffffffffffffffffffffffffffffffffffffffffffffffffffff19167effffffffffffffffffffffffffffffffffffffffffffffffffffffffffffff19168152602001600182015481525050815250848481518110610c5e57610c5d613c97565b5b6020026020010181905250505080806001019150506108fe565b5060405180604001604052808460000154815260200182815250858581518110610ca557610ca4613c97565b5b60200260200101819052505050508080600101915050610867565b50809350505050919050565b60036020528160005260406000208181548110610ce857600080fd5b90600052602060002001600091509150505481565b600260003373ffffffffffffffffffffffffffffffffffffffff1673ffffffffffffffffffffffffffffffffffffffff16815260200190815260200160002060020160009054906101000a900460ff16610d8c576040517f08c379a0000000000000000000000000000000000000000000000000000000008152600401610d83906138a6565b60405180910390fd5b6000600360003373ffffffffffffffffffffffffffffffffffffffff1673ffffffffffffffffffffffffffffffffffffffff168152602001908152602001600020905060005b8180549050811015610fa7576000828281548110610df357610df2613c97565b5b90600052602060002001549050600060046000838152602001908152602001600020905060005b8180549050811015610f97573373ffffffffffffffffffffffffffffffffffffffff16828281548110610e5057610e4f613c97565b5b9060005260206000200160009054906101000a900473ffffffffffffffffffffffffffffffffffffffff1673ffffffffffffffffffffffffffffffffffffffff1603610f8a578160018380549050610ea89190613cf5565b81548110610eb957610eb8613c97565b5b9060005260206000200160009054906101000a900473ffffffffffffffffffffffffffffffffffffffff16828281548110610ef757610ef6613c97565b5b9060005260206000200160006101000a81548173ffffffffffffffffffffffffffffffffffffffff021916908373ffffffffffffffffffffffffffffffffffffffff16021790555081805480610f5057610f4f613d29565b5b6001900381819060005260206000200160006101000a81549073ffffffffffffffffffffffffffffffffffffffff02191690559055610f97565b8080600101915050610e1a565b5050508080600101915050610dd2565b506000600260003373ffffffffffffffffffffffffffffffffffffffff1673ffffffffffffffffffffffffffffffffffffffff1681526020019081526020016000206003016040518060600160405290816000820160009054906101000a900460f81b7effffffffffffffffffffffffffffffffffffffffffffffffffffffffffffff19167effffffffffffffffffffffffffffffffffffffffffffffffffffffffffffff191681526020016000820160019054906101000a900460f81b7effffffffffffffffffffffffffffffffffffffffffffffffffffffffffffff19167effffffffffffffffffffffffffffffffffffffffffffffffffffffffffffff191681526020016001820154815250509050600360003373ffffffffffffffffffffffffffffffffffffffff1673ffffffffffffffffffffffffffffffffffffffff168152602001908152602001600020600061110491906127ec565b600260003373ffffffffffffffffffffffffffffffffffffffff1673ffffffffffffffffffffffffffffffffffffffff16815260200190815260200160002060008082016000611154919061280d565b60018201600090556002820160006101000a81549060ff021916905560038201600080820160006101000a81549060ff02191690556000820160016101000a81549060ff02191690556001820160009055505050503373ffffffffffffffffffffffffffffffffffffffff167f4dba80a63e9f609bd613fb8b745f40a3d8b63c2a5c6ef3ec8ef984225a7b8642826040516111ef91906138c6565b60405180910390a25050565b60008054906101000a900473ffffffffffffffffffffffffffffffffffffffff1681565b6060600460008381526020019081526020016000208054806020026020016040519081016040528092919081815260200182805480156112b457602002820191906000526020600020905b8160009054906101000a900473ffffffffffffffffffffffffffffffffffffffff1673ffffffffffffffffffffffffffffffffffffffff168152602001906001019080831161126a575b50505050509050919050565b60006009600083604001518152602001908152602001600020549050919050565b600460205281600052604060002081815481106112fd57600080fd5b906000526020600020016000915091509054906101000a900473ffffffffffffffffffffffffffffffffffffffff1681565b600260003373ffffffffffffffffffffffffffffffffffffffff1673ffffffffffffffffffffffffffffffffffffffff16815260200190815260200160002060020160009054906101000a900460ff16156113bf576040517f08c379a00000000000000000000000000000000000000000000000000000000081526004016113b690613da4565b60405180910390fd5b6000835103611403576040517f08c379a00000000000000000000000000000000000000000000000000000000081526004016113fa90613e10565b60405180910390fd5b6000825111611447576040517f08c379a000000000000000000000000000000000000000000000000000000000815260040161143e90613e7c565b60405180910390fd5b60405180608001604052808481526020016000815260200160011515815260200182815250600260003373ffffffffffffffffffffffffffffffffffffffff1673ffffffffffffffffffffffffffffffffffffffff16815260200190815260200160002060008201518160000190816114c09190613bc5565b506020820151816001015560408201518160020160006101000a81548160ff02191690831515021790555060608201518160030160008201518160000160006101000a81548160ff021916908360f81c021790555060208201518160000160016101000a81548160ff021916908360f81c0217905550604082015181600101555050905050600660003373ffffffffffffffffffffffffffffffffffffffff1673ffffffffffffffffffffffffffffffffffffffff16815260200190815260200160002060009054906101000a900460ff16611652576005339080600181540180825580915050600190039060005260206000200160009091909190916101000a81548173ffffffffffffffffffffffffffffffffffffffff021916908373ffffffffffffffffffffffffffffffffffffffff1602179055506001600660003373ffffffffffffffffffffffffffffffffffffffff1673ffffffffffffffffffffffffffffffffffffffff16815260200190815260200160002060006101000a81548160ff0219169083151502179055505b81600360003373ffffffffffffffffffffffffffffffffffffffff1673ffffffffffffffffffffffffffffffffffffffff16815260200190815260200160002090805190602001906116a592919061284d565b5060005b82518110156117b55760008382815181106116c7576116c6613c97565b5b6020026020010151905060006007600083815260200190815260200160002080546116f19061397c565b905003611733576040517f08c379a000000000000000000000000000000000000000000000000000000000815260040161172a90613ee8565b60405180910390fd5b60046000828152602001908152602001600020339080600181540180825580915050600190039060005260206000200160009091909190916101000a81548173ffffffffffffffffffffffffffffffffffffffff021916908373ffffffffffffffffffffffffffffffffffffffff1602179055505080806001019150506116a9565b503373ffffffffffffffffffffffffffffffffffffffff167f4dba80a63e9f609bd613fb8b745f40a3d8b63c2a5c6ef3ec8ef984225a7b8642826040516117fc91906138c6565b60405180910390a2505050565b600760205280600052604060002060009150905080546118289061397c565b80601f01602080910402602001604051908101604052809291908181526020018280546118549061397c565b80156118a15780601f10611876576101008083540402835291602001916118a1565b820191906000526020600020905b81548152906001019060200180831161188457829003601f168201915b505050505081565b6000606060008351116118f1576040517f08c379a00000000000000000000000000000000000000000000000000000000081526004016118e890613e7c565b60405180910390fd5b60016000815461190090613f08565b91905081905591506000600860008481526020019081526020016000209050848160010160008201518160000160006101000a81548160ff021916908360f81c021790555060208201518160000160016101000a81548160ff021916908360f81c021790555060408201518160010155905050338160030160006101000a81548173ffffffffffffffffffffffffffffffffffffffff021916908373ffffffffffffffffffffffffffffffffffffffff1602179055506000845190508067ffffffffffffffff8111156119d6576119d561297d565b5b604051908082528060200260200182016040528015611a0957816020015b60608152602001906001900390816119f45790505b50925060005b81811015611c5d576000868281518110611a2c57611a2b613c97565b5b602002602001015190506000600760008381526020019081526020016000208054611a569061397c565b905003611a98576040517f08c379a0000000000000000000000000000000000000000000000000000000008152600401611a8f90613ee8565b60405180910390fd5b836000016001816001815401808255809150500390600052602060002090505080846000018381548110611acf57611ace613c97565b5b906000526020600020906003020160000181905550600060046000838152602001908152602001600020905080805480602002602001604051908101604052809291908181526020018280548015611b7c57602002820191906000526020600020905b8160009054906101000a900473ffffffffffffffffffffffffffffffffffffffff1673ffffffffffffffffffffffffffffffffffffffff1681526020019060010190808311611b32575b5050505050868481518110611b9457611b93613c97565b5b602002602001018190525060005b8180549050811015611c4d57818181548110611bc157611bc0613c97565b5b9060005260206000200160009054906101000a900473ffffffffffffffffffffffffffffffffffffffff1673ffffffffffffffffffffffffffffffffffffffff167f74b49f1dea9ab505bc114f53719a8c733dbca7d051df0d4a3481b83e02c35252898860010187604051611c389392919061403f565b60405180910390a28080600101915050611ba2565b5050508080600101915050611a0f565b507ffb1a3f931d05d49010351f5c27030b1a623387afb8dc107f75378192dc9909f3848785604051611c9193929190614076565b60405180910390a18360096000886040015181526020019081526020016000208190555050509250929050565b60058181548110611cce57600080fd5b906000526020600020016000915054906101000a900473ffffffffffffffffffffffffffffffffffffffff1681565b611d0561289a565b600080600860008581526020019081526020016000209050806001018160030160009054906101000a900473ffffffffffffffffffffffffffffffffffffffff16816040518060600160405290816000820160009054906101000a900460f81b7effffffffffffffffffffffffffffffffffffffffffffffffffffffffffffff19167effffffffffffffffffffffffffffffffffffffffffffffffffffffffffffff191681526020016000820160019054906101000a900460f81b7effffffffffffffffffffffffffffffffffffffffffffffffffffffffffffff19167effffffffffffffffffffffffffffffffffffffffffffffffffffffffffffff1916815260200160018201548152505091509250925050915091565b6060806000805b600580549050811015611ee1576002600060058381548110611e4a57611e49613c97565b5b9060005260206000200160009054906101000a900473ffffffffffffffffffffffffffffffffffffffff1673ffffffffffffffffffffffffffffffffffffffff1673ffffffffffffffffffffffffffffffffffffffff16815260200190815260200160002060020160009054906101000a900460ff1615611ed4578180611ed090613f08565b9250505b8080600101915050611e25565b508067ffffffffffffffff811115611efc57611efb61297d565b5b604051908082528060200260200182016040528015611f2a5781602001602082028036833780820191505090505b5092508067ffffffffffffffff811115611f4757611f4661297d565b5b604051908082528060200260200182016040528015611f8057816020015b611f6d61289a565b815260200190600190039081611f655790505b5091506000805b6005805490508110156121c257600060058281548110611faa57611fa9613c97565b5b9060005260206000200160009054906101000a900473ffffffffffffffffffffffffffffffffffffffff169050600260008273ffffffffffffffffffffffffffffffffffffffff1673ffffffffffffffffffffffffffffffffffffffff16815260200190815260200160002060020160009054906101000a900460ff16156121b457808684815181106120405761203f613c97565b5b602002602001019073ffffffffffffffffffffffffffffffffffffffff16908173ffffffffffffffffffffffffffffffffffffffff1681525050600260008273ffffffffffffffffffffffffffffffffffffffff1673ffffffffffffffffffffffffffffffffffffffff1681526020019081526020016000206003016040518060600160405290816000820160009054906101000a900460f81b7effffffffffffffffffffffffffffffffffffffffffffffffffffffffffffff19167effffffffffffffffffffffffffffffffffffffffffffffffffffffffffffff191681526020016000820160019054906101000a900460f81b7effffffffffffffffffffffffffffffffffffffffffffffffffffffffffffff19167effffffffffffffffffffffffffffffffffffffffffffffffffffffffffffff1916815260200160018201548152505085848151811061219a57612199613c97565b5b602002602001018190525082806121b090613f08565b9350505b508080600101915050611f87565b5050509091565b60096020528060005260406000206000915090505481565b60026020528060005260406000206000915090508060000180546122049061397c565b80601f01602080910402602001604051908101604052809291908181526020018280546122309061397c565b801561227d5780601f106122525761010080835404028352916020019161227d565b820191906000526020600020905b81548152906001019060200180831161226057829003601f168201915b5050505050908060010154908060020160009054906101000a900460ff1690806003016040518060600160405290816000820160009054906101000a900460f81b7effffffffffffffffffffffffffffffffffffffffffffffffffffffffffffff19167effffffffffffffffffffffffffffffffffffffffffffffffffffffffffffff191681526020016000820160019054906101000a900460f81b7effffffffffffffffffffffffffffffffffffffffffffffffffffffffffffff19167effffffffffffffffffffffffffffffffffffffffffffffffffffffffffffff19168152602001600182015481525050905084565b600260003373ffffffffffffffffffffffffffffffffffffffff1673ffffffffffffffffffffffffffffffffffffffff16815260200190815260200160002060020160009054906101000a900460ff166123ff576040517f08c379a00000000000000000000000000000000000000000000000000000000081526004016123f6906138a6565b60405180910390fd5b60006008600086815260200190815260200160002090508060000180549050841061245f576040517f08c379a000000000000000000000000000000000000000000000000000000000815260040161245690614100565b60405180910390fd5b600081600001858154811061247757612476613c97565b5b9060005260206000209060030201905060008160020160003373ffffffffffffffffffffffffffffffffffffffff1673ffffffffffffffffffffffffffffffffffffffff16815260200190815260200160002054905060008103612667578160010160405180606001604052803373ffffffffffffffffffffffffffffffffffffffff16815260200187600281111561251357612512612e45565b5b815260200186815250908060018154018082558091505060019003906000526020600020906003020160009091909190915060008201518160000160006101000a81548173ffffffffffffffffffffffffffffffffffffffff021916908373ffffffffffffffffffffffffffffffffffffffff16021790555060208201518160000160146101000a81548160ff021916908360028111156125b7576125b6612e45565b5b021790555060408201518160010160008201518160000160006101000a81548160ff021916908360f81c021790555060208201518160000160016101000a81548160ff021916908360f81c0217905550604082015181600101555050505081600101805490508260020160003373ffffffffffffffffffffffffffffffffffffffff1673ffffffffffffffffffffffffffffffffffffffff1681526020019081526020016000208190555061271d565b60008260010160018361267a9190613cf5565b8154811061268b5761268a613c97565b5b90600052602060002090600302019050858160000160146101000a81548160ff021916908360028111156126c2576126c1612e45565b5b0217905550848160010160008201518160000160006101000a81548160ff021916908360f81c021790555060208201518160000160016101000a81548160ff021916908360f81c021790555060408201518160010155905050505b7f5f3e857bb2fd6a5bd41b8e79b83418cb7635f5eaac6b6b6725483f0919da4b2f8784600101883388604051612757959493929190614120565b60405180910390a150505050505050565b604051806040016040528060008152602001606081525090565b6040518060c00160405280600073ffffffffffffffffffffffffffffffffffffffff1681526020016060815260200160008152602001600060028111156127cc576127cb612e45565b5b81526020016127d961289a565b81526020016127e661289a565b81525090565b508054600082559060005260206000209081019061280a9190612902565b50565b5080546128199061397c565b6000825580601f1061282b575061284a565b601f0160209004906000526020600020908101906128499190612902565b5b50565b828054828255906000526020600020908101928215612889579160200282015b8281111561288857825182559160200191906001019061286d565b5b5090506128969190612902565b5090565b604051806060016040528060007effffffffffffffffffffffffffffffffffffffffffffffffffffffffffffff1916815260200160007effffffffffffffffffffffffffffffffffffffffffffffffffffffffffffff19168152602001600080191681525090565b5b8082111561291b576000816000905550600101612903565b5090565b6000819050919050565b6129328161291f565b82525050565b600060208201905061294d6000830184612929565b92915050565b6000604051905090565b600080fd5b600080fd5b600080fd5b6000601f19601f8301169050919050565b7f4e487b7100000000000000000000000000000000000000000000000000000000600052604160045260246000fd5b6129b58261296c565b810181811067ffffffffffffffff821117156129d4576129d361297d565b5b80604052505050565b60006129e7612953565b90506129f382826129ac565b919050565b60007fff0000000000000000000000000000000000000000000000000000000000000082169050919050565b612a2d816129f8565b8114612a3857600080fd5b50565b600081359050612a4a81612a24565b92915050565b6000819050919050565b612a6381612a50565b8114612a6e57600080fd5b50565b600081359050612a8081612a5a565b92915050565b600060608284031215612a9c57612a9b612967565b5b612aa660606129dd565b90506000612ab684828501612a3b565b6000830152506020612aca84828501612a3b565b6020830152506040612ade84828501612a71565b60408301525092915050565b600060608284031215612b0057612aff61295d565b5b6000612b0e84828501612a86565b91505092915050565b612b208161291f565b8114612b2b57600080fd5b50565b600081359050612b3d81612b17565b92915050565b600060208284031215612b5957612b5861295d565b5b6000612b6784828501612b2e565b91505092915050565b612b79816129f8565b82525050565b612b8881612a50565b82525050565b606082016000820151612ba46000850182612b70565b506020820151612bb76020850182612b70565b506040820151612bca6040850182612b7f565b50505050565b600073ffffffffffffffffffffffffffffffffffffffff82169050919050565b6000612bfb82612bd0565b9050919050565b612c0b81612bf0565b82525050565b6000608082019050612c266000830185612b8e565b612c336060830184612c02565b9392505050565b600080fd5b600080fd5b600067ffffffffffffffff821115612c5f57612c5e61297d565b5b612c688261296c565b9050602081019050919050565b82818337600083830152505050565b6000612c97612c9284612c44565b6129dd565b905082815260208101848484011115612cb357612cb2612c3f565b5b612cbe848285612c75565b509392505050565b600082601f830112612cdb57612cda612c3a565b5b8135612ceb848260208601612c84565b91505092915050565b60008060408385031215612d0b57612d0a61295d565b5b6000612d1985828601612b2e565b925050602083013567ffffffffffffffff811115612d3a57612d39612962565b5b612d4685828601612cc6565b9150509250929050565b600081519050919050565b600082825260208201905092915050565b6000819050602082019050919050565b612d858161291f565b82525050565b600081519050919050565b600082825260208201905092915050565b6000819050602082019050919050565b612dc081612bf0565b82525050565b600081519050919050565b600082825260208201905092915050565b60005b83811015612e00578082015181840152602081019050612de5565b60008484015250505050565b6000612e1782612dc6565b612e218185612dd1565b9350612e31818560208601612de2565b612e3a8161296c565b840191505092915050565b7f4e487b7100000000000000000000000000000000000000000000000000000000600052602160045260246000fd5b60038110612e8557612e84612e45565b5b50565b6000819050612e9682612e74565b919050565b6000612ea682612e88565b9050919050565b612eb681612e9b565b82525050565b606082016000820151612ed26000850182612b70565b506020820151612ee56020850182612b70565b506040820151612ef86040850182612b7f565b50505050565b600061014083016000830151612f176000860182612db7565b5060208301518482036020860152612f2f8282612e0c565b9150506040830151612f446040860182612d7c565b506060830151612f576060860182612ead565b506080830151612f6a6080860182612ebc565b5060a0830151612f7d60e0860182612ebc565b508091505092915050565b6000612f948383612efe565b905092915050565b6000602082019050919050565b6000612fb482612d8b565b612fbe8185612d96565b935083602082028501612fd085612da7565b8060005b8581101561300c5784840389528151612fed8582612f88565b9450612ff883612f9c565b925060208a01995050600181019050612fd4565b50829750879550505050505092915050565b60006040830160008301516130366000860182612d7c565b506020830151848203602086015261304e8282612fa9565b9150508091505092915050565b6000613067838361301e565b905092915050565b6000602082019050919050565b600061308782612d50565b6130918185612d5b565b9350836020820285016130a385612d6c565b8060005b858110156130df57848403895281516130c0858261305b565b94506130cb8361306f565b925060208a019950506001810190506130a7565b50829750879550505050505092915050565b6000602082019050818103600083015261310b818461307c565b905092915050565b61311c81612bf0565b811461312757600080fd5b50565b60008135905061313981613113565b92915050565b600080604083850312156131565761315561295d565b5b60006131648582860161312a565b925050602061317585828601612b2e565b9150509250929050565b60006020820190506131946000830184612c02565b92915050565b600081519050919050565b600082825260208201905092915050565b6000819050602082019050919050565b60006131d28383612db7565b60208301905092915050565b6000602082019050919050565b60006131f68261319a565b61320081856131a5565b935061320b836131b6565b8060005b8381101561323c57815161322388826131c6565b975061322e836131de565b92505060018101905061320f565b5085935050505092915050565b6000602082019050818103600083015261326381846131eb565b905092915050565b600080604083850312156132825761328161295d565b5b600061329085828601612b2e565b92505060206132a185828601612b2e565b9150509250929050565b600067ffffffffffffffff8211156132c6576132c561297d565b5b602082029050602081019050919050565b600080fd5b60006132ef6132ea846132ab565b6129dd565b90508083825260208201905060208402830185811115613312576133116132d7565b5b835b8181101561333b57806133278882612b2e565b845260208401935050602081019050613314565b5050509392505050565b600082601f83011261335a57613359612c3a565b5b813561336a8482602086016132dc565b91505092915050565b600080600060a0848603121561338c5761338b61295d565b5b600084013567ffffffffffffffff8111156133aa576133a9612962565b5b6133b686828701612cc6565b935050602084013567ffffffffffffffff8111156133d7576133d6612962565b5b6133e386828701613345565b92505060406133f486828701612a86565b9150509250925092565b600082825260208201905092915050565b600061341a82612dc6565b61342481856133fe565b9350613434818560208601612de2565b61343d8161296c565b840191505092915050565b60006020820190508181036000830152613462818461340f565b905092915050565b600080608083850312156134815761348061295d565b5b600061348f85828601612a86565b925050606083013567ffffffffffffffff8111156134b0576134af612962565b5b6134bc85828601613345565b9150509250929050565b600081519050919050565b600082825260208201905092915050565b6000819050602082019050919050565b600082825260208201905092915050565b600061350e8261319a565b61351881856134f2565b9350613523836131b6565b8060005b8381101561355457815161353b88826131c6565b9750613546836131de565b925050600181019050613527565b5085935050505092915050565b600061356d8383613503565b905092915050565b6000602082019050919050565b600061358d826134c6565b61359781856134d1565b9350836020820285016135a9856134e2565b8060005b858110156135e557848403895281516135c68582613561565b94506135d183613575565b925060208a019950506001810190506135ad565b50829750879550505050505092915050565b600060408201905061360c6000830185612929565b818103602083015261361e8184613582565b90509392505050565b600081519050919050565b600082825260208201905092915050565b6000819050602082019050919050565b600061365f8383612ebc565b60608301905092915050565b6000602082019050919050565b600061368382613627565b61368d8185613632565b935061369883613643565b8060005b838110156136c95781516136b08882613653565b97506136bb8361366b565b92505060018101905061369c565b5085935050505092915050565b600060408201905081810360008301526136f081856131eb565b905081810360208301526137048184613678565b90509392505050565b6000602082840312156137235761372261295d565b5b600061373184828501612a71565b91505092915050565b6000602082840312156137505761374f61295d565b5b600061375e8482850161312a565b91505092915050565b60008115159050919050565b61377c81613767565b82525050565b600060c082019050818103600083015261379c818761340f565b90506137ab6020830186612929565b6137b86040830185613773565b6137c56060830184612b8e565b95945050505050565b600381106137db57600080fd5b50565b6000813590506137ed816137ce565b92915050565b60008060008060c0858703121561380d5761380c61295d565b5b600061381b87828801612b2e565b945050602061382c87828801612b2e565b935050604061383d878288016137de565b925050606061384e87828801612a86565b91505092959194509250565b7f4e6f742076616c696461746f7200000000000000000000000000000000000000600082015250565b6000613890600d836133fe565b915061389b8261385a565b602082019050919050565b600060208201905081810360008301526138bf81613883565b9050919050565b60006060820190506138db6000830184612b8e565b92915050565b7f4f6e6c79206f776e657200000000000000000000000000000000000000000000600082015250565b6000613917600a836133fe565b9150613922826138e1565b602082019050919050565b600060208201905081810360008301526139468161390a565b9050919050565b7f4e487b7100000000000000000000000000000000000000000000000000000000600052602260045260246000fd5b6000600282049050600182168061399457607f821691505b6020821081036139a7576139a661394d565b5b50919050565b7f43617465676f7279206578697374730000000000000000000000000000000000600082015250565b60006139e3600f836133fe565b91506139ee826139ad565b602082019050919050565b60006020820190508181036000830152613a12816139d6565b9050919050565b60008190508160005260206000209050919050565b60006020601f8301049050919050565b600082821b905092915050565b600060088302613a7b7fffffffffffffffffffffffffffffffffffffffffffffffffffffffffffffffff82613a3e565b613a858683613a3e565b95508019841693508086168417925050509392505050565b6000819050919050565b6000613ac2613abd613ab88461291f565b613a9d565b61291f565b9050919050565b6000819050919050565b613adc83613aa7565b613af0613ae882613ac9565b848454613a4b565b825550505050565b600090565b613b05613af8565b613b10818484613ad3565b505050565b5b81811015613b3457613b29600082613afd565b600181019050613b16565b5050565b601f821115613b7957613b4a81613a19565b613b5384613a2e565b81016020851015613b62578190505b613b76613b6e85613a2e565b830182613b15565b50505b505050565b600082821c905092915050565b6000613b9c60001984600802613b7e565b1980831691505092915050565b6000613bb58383613b8b565b9150826002028217905092915050565b613bce82612dc6565b67ffffffffffffffff811115613be757613be661297d565b5b613bf1825461397c565b613bfc828285613b38565b600060209050601f831160018114613c2f5760008415613c1d578287015190505b613c278582613ba9565b865550613c8f565b601f198416613c3d86613a19565b60005b82811015613c6557848901518255600182019150602085019450602081019050613c40565b86831015613c825784890151613c7e601f891682613b8b565b8355505b6001600288020188555050505b505050505050565b7f4e487b7100000000000000000000000000000000000000000000000000000000600052603260045260246000fd5b7f4e487b7100000000000000000000000000000000000000000000000000000000600052601160045260246000fd5b6000613d008261291f565b9150613d0b8361291f565b9250828203905081811115613d2357613d22613cc6565b5b92915050565b7f4e487b7100000000000000000000000000000000000000000000000000000000600052603160045260246000fd5b7f416c72656164792076616c696461746f72000000000000000000000000000000600082015250565b6000613d8e6011836133fe565b9150613d9982613d58565b602082019050919050565b60006020820190508181036000830152613dbd81613d81565b9050919050565b7f496e76616c696420646f6d61696e000000000000000000000000000000000000600082015250565b6000613dfa600e836133fe565b9150613e0582613dc4565b602082019050919050565b60006020820190508181036000830152613e2981613ded565b9050919050565b7f4e6f2063617465676f7269657300000000000000000000000000000000000000600082015250565b6000613e66600d836133fe565b9150613e7182613e30565b602082019050919050565b60006020820190508181036000830152613e9581613e59565b9050919050565b7f43617465676f7279206e6f742065786973747300000000000000000000000000600082015250565b6000613ed26013836133fe565b9150613edd82613e9c565b602082019050919050565b60006020820190508181036000830152613f0181613ec5565b9050919050565b6000613f138261291f565b91507fffffffffffffffffffffffffffffffffffffffffffffffffffffffffffffffff8203613f4557613f44613cc6565b5b600182019050919050565b60008160001c9050919050565b60008160f81b9050919050565b6000613f7582613f5d565b9050919050565b6000613f8f613f8a83613f50565b613f6a565b9050919050565b60008160081c9050919050565b6000613fb6613fb183613f96565b613f6a565b9050919050565b6000819050919050565b6000613fda613fd583613f50565b613fbd565b9050919050565b606082016000808301549050613ff681613f7c565b6140036000860182612b70565b5061400d81613fa3565b61401a6020860182612b70565b506001830154905061402b81613fc7565b6140386040860182612b7f565b5050505050565b600060a0820190506140546000830186612929565b6140616020830185613fe1565b61406e6080830184612929565b949350505050565b600060a08201905061408b6000830186612929565b6140986020830185612b8e565b81810360808301526140aa8184613582565b9050949350505050565b7f496e76616c6964206173657274696f6e00000000000000000000000000000000600082015250565b60006140ea6010836133fe565b91506140f5826140b4565b602082019050919050565b60006020820190508181036000830152614119816140dd565b9050919050565b6000610120820190506141366000830188612929565b6141436020830187613fe1565b6141506080830186612929565b61415d60a0830185612c02565b61416a60c0830184612b8e565b969550505050505056fea2646970667358221220186762445ed1cdd69ab3072bd6a274e2197cb284e31f88fd98a352865b88c25164736f6c634300081c0033",
  "linkReferences": {},
  "deployedLinkReferences": {}
}