{
  "_format": "hh-sol-artifact-1",
  "contractName": "TrustNews",
  "sourceName": "contracts/TrustNews.sol",
  "abi": [
    {
      "inputs": [],
      "stateMutability": "nonpayable",
      "type": "constructor"
    },
    {
      "anonymous": false,
      "inputs": [
        {
          "indexed": false,
          "internalType": "uint256",
          "name": "postId",
          "type": "uint256"
        },
        {
          "components": [
            {
              "internalType": "bytes1",
              "name": "hash_function",
              "type": "bytes1"
            },
            {
              "internalType": "bytes1",
              "name": "hash_size",
              "type": "bytes1"
            },
            {
              "internalType": "bytes32",
              "name": "digest",
              "type": "bytes32"
            }
          ],
          "indexed": false,
          "internalType": "struct TrustNews.Multihash",
          "name": "hash_ipfs",
          "type": "tuple"
        },
        {
          "indexed": false,
          "internalType": "address[][]",
          "name": "validatorAddressesByAsertion",
          "type": "address[][]"
        }
      ],
      "name": "RegisterNewResult",
      "type": "event"
    },
    {
      "anonymous": false,
      "inputs": [
        {
          "indexed": false,
          "internalType": "uint256",
          "name": "postId",
          "type": "uint256"
        },
        {
          "components": [
            {
              "internalType": "bytes1",
              "name": "hash_function",
              "type": "bytes1"
            },
            {
              "internalType": "bytes1",
              "name": "hash_size",
              "type": "bytes1"
            },
            {
              "internalType": "bytes32",
              "name": "digest",
              "type": "bytes32"
            }
          ],
          "indexed": false,
          "internalType": "struct TrustNews.Multihash",
          "name": "postDocument",
          "type": "tuple"
        },
        {
          "indexed": false,
          "internalType": "uint256",
          "name": "asertionIndex",
          "type": "uint256"
        },
        {
          "indexed": true,
          "internalType": "address",
          "name": "validator",
          "type": "address"
        }
      ],
      "name": "ValidationRequested",
      "type": "event"
    },
    {
      "anonymous": false,
      "inputs": [
        {
          "indexed": false,
          "internalType": "uint256",
          "name": "postId",
          "type": "uint256"
        },
        {
          "components": [
            {
              "internalType": "bytes1",
              "name": "hash_function",
              "type": "bytes1"
            },
            {
              "internalType": "bytes1",
              "name": "hash_size",
              "type": "bytes1"
            },
            {
              "internalType": "bytes32",
              "name": "digest",
              "type": "bytes32"
            }
          ],
          "indexed": false,
          "internalType": "struct TrustNews.Multihash",
          "name": "postDocument",
          "type": "tuple"
        },
        {
          "indexed": false,
          "internalType": "uint256",
          "name": "asertionIndex",
          "type": "uint256"
        },
        {
          "indexed": false,
          "internalType": "address",
          "name": "validator",
          "type": "address"
        },
        {
          "components": [
            {
              "internalType": "bytes1",
              "name": "hash_function",
              "type": "bytes1"
            },
            {
              "internalType": "bytes1",
              "name": "hash_size",
              "type": "bytes1"
            },
            {
              "internalType": "bytes32",
              "name": "digest",
              "type": "bytes32"
            }
          ],
          "indexed": false,
          "internalType": "struct TrustNews.Multihash",
          "name": "validationDocument",
          "type": "tuple"
        }
      ],
      "name": "ValidationSubmitted",
      "type": "event"
    },
    {
      "inputs": [
        {
          "internalType": "uint256",
          "name": "id",
          "type": "uint256"
        },
        {
          "internalType": "string",
          "name": "description",
          "type": "string"
        }
      ],
      "name": "addCategory",
      "outputs": [],
      "stateMutability": "nonpayable",
      "type": "function"
    },
    {
      "inputs": [
        {
          "internalType": "uint256",
          "name": "postId",
          "type": "uint256"
        },
        {
          "internalType": "uint256",
          "name": "asertionIndex",
          "type": "uint256"
        },
        {
          "internalType": "enum TrustNews.evaluation",
          "name": "veredict",
          "type": "uint8"
        },
        {
          "components": [
            {
              "internalType": "bytes1",
              "name": "hash_function",
              "type": "bytes1"
            },
            {
              "internalType": "bytes1",
              "name": "hash_size",
              "type": "bytes1"
            },
            {
              "internalType": "bytes32",
              "name": "digest",
              "type": "bytes32"
            }
          ],
          "internalType": "struct TrustNews.Multihash",
          "name": "document",
          "type": "tuple"
        }
      ],
      "name": "addValidation",
      "outputs": [],
      "stateMutability": "nonpayable",
      "type": "function"
    },
    {
      "inputs": [
        {
          "internalType": "uint256",
          "name": "",
          "type": "uint256"
        }
      ],
      "name": "categories",
      "outputs": [
        {
          "internalType": "string",
          "name": "",
          "type": "string"
        }
      ],
      "stateMutability": "view",
      "type": "function"
    },
    {
      "inputs": [
        {
          "internalType": "uint256",
          "name": "postId",
          "type": "uint256"
        }
      ],
      "name": "getAsertionsWithValidations",
      "outputs": [
        {
          "components": [
            {
              "internalType": "uint256",
              "name": "categoryId",
              "type": "uint256"
            },
            {
              "components": [
                {
                  "internalType": "address",
                  "name": "validatorAddress",
                  "type": "address"
                },
                {
                  "internalType": "string",
                  "name": "domain",
                  "type": "string"
                },
                {
                  "internalType": "uint256",
                  "name": "reputation",
                  "type": "uint256"
                },
                {
                  "internalType": "enum TrustNews.evaluation",
                  "name": "veredict",
                  "type": "uint8"
                },
                {
                  "components": [
                    {
                      "internalType": "bytes1",
                      "name": "hash_function",
                      "type": "bytes1"
                    },
                    {
                      "internalType": "bytes1",
                      "name": "hash_size",
                      "type": "bytes1"
                    },
                    {
                      "internalType": "bytes32",
                      "name": "digest",
                      "type": "bytes32"
                    }
                  ],
                  "internalType": "struct TrustNews.Multihash",
                  "name": "document",
                  "type": "tuple"
                }
              ],
              "internalType": "struct TrustNews.ValidationView[]",
              "name": "validations",
              "type": "tuple[]"
            }
          ],
          "internalType": "struct TrustNews.AsertionView[]",
          "name": "",
          "type": "tuple[]"
        }
      ],
      "stateMutability": "view",
      "type": "function"
    },
    {
      "inputs": [
        {
          "components": [
            {
              "internalType": "bytes1",
              "name": "hash_function",
              "type": "bytes1"
            },
            {
              "internalType": "bytes1",
              "name": "hash_size",
              "type": "bytes1"
            },
            {
              "internalType": "bytes32",
              "name": "digest",
              "type": "bytes32"
            }
          ],
          "internalType": "struct TrustNews.Multihash",
          "name": "hash_cid",
          "type": "tuple"
        }
      ],
      "name": "getNewByCid",
      "outputs": [
        {
          "internalType": "uint256",
          "name": "",
          "type": "uint256"
        }
      ],
      "stateMutability": "view",
      "type": "function"
    },
    {
      "inputs": [
        {
          "internalType": "uint256",
          "name": "postId",
          "type": "uint256"
        }
      ],
      "name": "getPostFlat",
      "outputs": [
        {
          "components": [
            {
              "internalType": "bytes1",
              "name": "hash_function",
              "type": "bytes1"
            },
            {
              "internalType": "bytes1",
              "name": "hash_size",
              "type": "bytes1"
            },
            {
              "internalType": "bytes32",
              "name": "digest",
              "type": "bytes32"
            }
          ],
          "internalType": "struct TrustNews.Multihash",
          "name": "document",
          "type": "tuple"
        },
        {
          "internalType": "address",
          "name": "publisher",
          "type": "address"
        }
      ],
      "stateMutability": "view",
      "type": "function"
    },
    {
      "inputs": [
        {
          "internalType": "uint256",
          "name": "categoryId",
          "type": "uint256"
        }
      ],
      "name": "getValidatorsByCategory",
      "outputs": [
        {
          "internalType": "address[]",
          "name": "",
          "type": "address[]"
        }
      ],
      "stateMutability": "view",
      "type": "function"
    },
    {
      "inputs": [],
      "name": "owner",
      "outputs": [
        {
          "internalType": "address",
          "name": "",
          "type": "address"
        }
      ],
      "stateMutability": "view",
      "type": "function"
    },
    {
      "inputs": [],
      "name": "postCounter",
      "outputs": [
        {
          "internalType": "uint256",
          "name": "",
          "type": "uint256"
        }
      ],
      "stateMutability": "view",
      "type": "function"
    },
    {
      "inputs": [
        {
          "internalType": "uint256",
          "name": "",
          "type": "uint256"
        }
      ],
      "name": "postsById",
      "outputs": [
        {
          "components": [
            {
              "internalType": "bytes1",
              "name": "hash_function",
              "type": "bytes1"
            },
            {
              "internalType": "bytes1",
              "name": "hash_size",
              "type": "bytes1"
            },
            {
              "internalType": "bytes32",
              "name": "digest",
              "type": "bytes32"
            }
          ],
          "internalType": "struct TrustNews.Multihash",
          "name": "document",
          "type": "tuple"
        },
        {
          "internalType": "address",
          "name": "publisher",
          "type": "address"
        }
      ],
      "stateMutability": "view",
      "type": "function"
    },
    {
      "inputs": [
        {
          "internalType": "bytes32",
          "name": "",
          "type": "bytes32"
        }
      ],
      "name": "postsCid",
      "outputs": [
        {
          "internalType": "uint256",
          "name": "",
          "type": "uint256"
        }
      ],
      "stateMutability": "view",
      "type": "function"
    },
    {
      "inputs": [
        {
          "components": [
            {
              "internalType": "bytes1",
              "name": "hash_function",
              "type": "bytes1"
            },
            {
              "internalType": "bytes1",
              "name": "hash_size",
              "type": "bytes1"
            },
            {
              "internalType": "bytes32",
              "name": "digest",
              "type": "bytes32"
            }
          ],
          "internalType": "struct TrustNews.Multihash",
          "name": "hash_ipfs",
          "type": "tuple"
        },
        {
          "internalType": "uint256[]",
          "name": "categoryIds",
          "type": "uint256[]"
        }
      ],
      "name": "registerNew",
      "outputs": [
        {
          "internalType": "uint256",
          "name": "postId",
          "type": "uint256"
        },
        {
          "internalType": "address[][]",
          "name": "validatorAddressesByAsertion",
          "type": "address[][]"
        }
      ],
      "stateMutability": "nonpayable",
      "type": "function"
    },
    {
      "inputs": [
        {
          "internalType": "string",
          "name": "domain",
          "type": "string"
        },
        {
          "internalType": "uint256[]",
          "name": "categoryIds",
          "type": "uint256[]"
        }
      ],
      "name": "registerValidator",
      "outputs": [],
      "stateMutability": "nonpayable",
      "type": "function"
    },
    {
      "inputs": [],
      "name": "unregisterValidator",
      "outputs": [],
      "stateMutability": "nonpayable",
      "type": "function"
    },
    {
      "inputs": [
        {
          "internalType": "address",
          "name": "",
          "type": "address"
        },
        {
          "internalType": "uint256",
          "name": "",
          "type": "uint256"
        }
      ],
      "name": "validatorCategories",
      "outputs": [
        {
          "internalType": "uint256",
          "name": "",
          "type": "uint256"
        }
      ],
      "stateMutability": "view",
      "type": "function"
    },
    {
      "inputs": [
        {
          "internalType": "address",
          "name": "",
          "type": "address"
        }
      ],
      "name": "validators",
      "outputs": [
        {
          "internalType": "string",
          "name": "domain",
          "type": "string"
        },
        {
          "internalType": "uint256",
          "name": "reputation",
          "type": "uint256"
        },
        {
          "internalType": "bool",
          "name": "exists",
          "type": "bool"
        }
      ],
      "stateMutability": "view",
      "type": "function"
    },
    {
      "inputs": [
        {
          "internalType": "uint256",
          "name": "",
          "type": "uint256"
        },
        {
          "internalType": "uint256",
          "name": "",
          "type": "uint256"
        }
      ],
      "name": "validatorsByCategory",
      "outputs": [
        {
          "internalType": "address",
          "name": "",
          "type": "address"
        }
      ],
      "stateMutability": "view",
      "type": "function"
    }
  ],
  "bytecode": "0x6080604052348015600f57600080fd5b50336000806101000a81548173ffffffffffffffffffffffffffffffffffffffff021916908373ffffffffffffffffffffffffffffffffffffffff16021790555061358a8061005f6000396000f3fe608060405234801561001057600080fd5b506004361061010b5760003560e01c80639760d2b2116100a2578063d95dbf3411610071578063d95dbf34146102df578063e951c28614610310578063f373774614610341578063fa52c7d814610371578063fd92894a146103a35761010b565b80639760d2b21461021f578063a27a7d361461024f578063b26d721d1461027f578063c6cdbe5e146102af5761010b565b80635fab66e6116100de5780635fab66e614610197578063695362a2146101c75780636ca56267146101f75780638da5cb5b146102015761010b565b806309b3d75e1461011057806334dffd551461012e57806336ec054a1461015f5780635d5581c51461017b575b600080fd5b6101186103bf565b6040516101259190611e4e565b60405180910390f35b61014860048036038101906101439190611ea9565b6103c5565b604051610156929190611fad565b60405180910390f35b610179600480360381019061017491906121e4565b6104d3565b005b6101956004803603810190610190919061225c565b6107f4565b005b6101b160048036038101906101ac9190611ea9565b610909565b6040516101be9190612645565b60405180910390f35b6101e160048036038101906101dc9190612693565b610d1a565b6040516101ee9190611e4e565b60405180910390f35b6101ff610d4b565b005b6102096110b2565b60405161021691906126d3565b60405180910390f35b61023960048036038101906102349190611ea9565b6110d6565b604051610246919061279d565b60405180910390f35b61026960048036038101906102649190612880565b611177565b6040516102769190611e4e565b60405180910390f35b610299600480360381019061029491906128ad565b611198565b6040516102a691906126d3565b60405180910390f35b6102c960048036038101906102c49190611ea9565b6111e6565b6040516102d69190612937565b60405180910390f35b6102f960048036038101906102f49190612959565b611286565b604051610307929190612ae6565b60405180910390f35b61032a60048036038101906103259190611ea9565b61169b565b604051610338929190611fad565b60405180910390f35b61035b60048036038101906103569190612b16565b6117bc565b6040516103689190611e4e565b60405180910390f35b61038b60048036038101906103869190612b43565b6117d4565b60405161039a93929190612b8b565b60405180910390f35b6103bd60048036038101906103b89190612bee565b611893565b005b60015481565b6006602052806000526040600020600091509050806001016040518060600160405290816000820160009054906101000a900460f81b7effffffffffffffffffffffffffffffffffffffffffffffffffffffffffffff19167effffffffffffffffffffffffffffffffffffffffffffffffffffffffffffff191681526020016000820160019054906101000a900460f81b7effffffffffffffffffffffffffffffffffffffffffffffffffffffffffffff19167effffffffffffffffffffffffffffffffffffffffffffffffffffffffffffff19168152602001600182015481525050908060030160009054906101000a900473ffffffffffffffffffffffffffffffffffffffff16905082565b600260003373ffffffffffffffffffffffffffffffffffffffff1673ffffffffffffffffffffffffffffffffffffffff16815260200190815260200160002060020160009054906101000a900460ff1615610563576040517f08c379a000000000000000000000000000000000000000000000000000000000815260040161055a90612ca1565b60405180910390fd5b60008251036105a7576040517f08c379a000000000000000000000000000000000000000000000000000000000815260040161059e90612d0d565b60405180910390fd5b60008151116105eb576040517f08c379a00000000000000000000000000000000000000000000000000000000081526004016105e290612d79565b60405180910390fd5b60405180606001604052808381526020016000815260200160011515815250600260003373ffffffffffffffffffffffffffffffffffffffff1673ffffffffffffffffffffffffffffffffffffffff168152602001908152602001600020600082015181600001908161065e9190612fa5565b506020820151816001015560408201518160020160006101000a81548160ff02191690831515021790555090505080600360003373ffffffffffffffffffffffffffffffffffffffff1673ffffffffffffffffffffffffffffffffffffffff16815260200190815260200160002090805190602001906106df929190611c8b565b5060005b81518110156107ef57600082828151811061070157610700613077565b5b60200260200101519050600060056000838152602001908152602001600020805461072b90612dc8565b90500361076d576040517f08c379a0000000000000000000000000000000000000000000000000000000008152600401610764906130f2565b60405180910390fd5b60046000828152602001908152602001600020339080600181540180825580915050600190039060005260206000200160009091909190916101000a81548173ffffffffffffffffffffffffffffffffffffffff021916908373ffffffffffffffffffffffffffffffffffffffff1602179055505080806001019150506106e3565b505050565b60008054906101000a900473ffffffffffffffffffffffffffffffffffffffff1673ffffffffffffffffffffffffffffffffffffffff163373ffffffffffffffffffffffffffffffffffffffff1614610882576040517f08c379a00000000000000000000000000000000000000000000000000000000081526004016108799061315e565b60405180910390fd5b60006005600084815260200190815260200160002080546108a290612dc8565b9050146108e4576040517f08c379a00000000000000000000000000000000000000000000000000000000081526004016108db906131ca565b60405180910390fd5b806005600084815260200190815260200160002090816109049190612fa5565b505050565b6060600060066000848152602001908152602001600020905060008160000180549050905060008167ffffffffffffffff81111561094a57610949611ff1565b5b60405190808252806020026020018201604052801561098357816020015b610970611cd8565b8152602001906001900390816109685790505b50905060005b82811015610d0e5760008460000182815481106109a9576109a8613077565b5b9060005260206000209060030201905060008160010180549050905060008167ffffffffffffffff8111156109e1576109e0611ff1565b5b604051908082528060200260200182016040528015610a1a57816020015b610a07611cf2565b8152602001906001900390816109ff5790505b50905060005b82811015610cc6576000846001018281548110610a4057610a3f613077565b5b906000526020600020906003020190506000600260008360000160009054906101000a900473ffffffffffffffffffffffffffffffffffffffff1673ffffffffffffffffffffffffffffffffffffffff1673ffffffffffffffffffffffffffffffffffffffff16815260200190815260200160002090506040518060a001604052808360000160009054906101000a900473ffffffffffffffffffffffffffffffffffffffff1673ffffffffffffffffffffffffffffffffffffffff168152602001826000018054610b1190612dc8565b80601f0160208091040260200160405190810160405280929190818152602001828054610b3d90612dc8565b8015610b8a5780601f10610b5f57610100808354040283529160200191610b8a565b820191906000526020600020905b815481529060010190602001808311610b6d57829003601f168201915b50505050508152602001826001015481526020018360000160149054906101000a900460ff166002811115610bc257610bc16123ad565b5b8152602001836001016040518060600160405290816000820160009054906101000a900460f81b7effffffffffffffffffffffffffffffffffffffffffffffffffffffffffffff19167effffffffffffffffffffffffffffffffffffffffffffffffffffffffffffff191681526020016000820160019054906101000a900460f81b7effffffffffffffffffffffffffffffffffffffffffffffffffffffffffffff19167effffffffffffffffffffffffffffffffffffffffffffffffffffffffffffff19168152602001600182015481525050815250848481518110610cac57610cab613077565b5b602002602001018190525050508080600101915050610a20565b5060405180604001604052808460000154815260200182815250858581518110610cf357610cf2613077565b5b60200260200101819052505050508080600101915050610989565b50809350505050919050565b60036020528160005260406000208181548110610d3657600080fd5b90600052602060002001600091509150505481565b600260003373ffffffffffffffffffffffffffffffffffffffff1673ffffffffffffffffffffffffffffffffffffffff16815260200190815260200160002060020160009054906101000a900460ff16610dda576040517f08c379a0000000000000000000000000000000000000000000000000000000008152600401610dd190613236565b60405180910390fd5b6000600360003373ffffffffffffffffffffffffffffffffffffffff1673ffffffffffffffffffffffffffffffffffffffff168152602001908152602001600020905060005b8180549050811015610ff5576000828281548110610e4157610e40613077565b5b90600052602060002001549050600060046000838152602001908152602001600020905060005b8180549050811015610fe5573373ffffffffffffffffffffffffffffffffffffffff16828281548110610e9e57610e9d613077565b5b9060005260206000200160009054906101000a900473ffffffffffffffffffffffffffffffffffffffff1673ffffffffffffffffffffffffffffffffffffffff1603610fd8578160018380549050610ef69190613285565b81548110610f0757610f06613077565b5b9060005260206000200160009054906101000a900473ffffffffffffffffffffffffffffffffffffffff16828281548110610f4557610f44613077565b5b9060005260206000200160006101000a81548173ffffffffffffffffffffffffffffffffffffffff021916908373ffffffffffffffffffffffffffffffffffffffff16021790555081805480610f9e57610f9d6132b9565b5b6001900381819060005260206000200160006101000a81549073ffffffffffffffffffffffffffffffffffffffff02191690559055610fe5565b8080600101915050610e68565b5050508080600101915050610e20565b50600360003373ffffffffffffffffffffffffffffffffffffffff1673ffffffffffffffffffffffffffffffffffffffff16815260200190815260200160002060006110419190611d4f565b600260003373ffffffffffffffffffffffffffffffffffffffff1673ffffffffffffffffffffffffffffffffffffffff168152602001908152602001600020600080820160006110919190611d70565b60018201600090556002820160006101000a81549060ff0219169055505050565b60008054906101000a900473ffffffffffffffffffffffffffffffffffffffff1681565b60606004600083815260200190815260200160002080548060200260200160405190810160405280929190818152602001828054801561116b57602002820191906000526020600020905b8160009054906101000a900473ffffffffffffffffffffffffffffffffffffffff1673ffffffffffffffffffffffffffffffffffffffff1681526020019060010190808311611121575b50505050509050919050565b60006007600083604001518152602001908152602001600020549050919050565b600460205281600052604060002081815481106111b457600080fd5b906000526020600020016000915091509054906101000a900473ffffffffffffffffffffffffffffffffffffffff1681565b6005602052806000526040600020600091509050805461120590612dc8565b80601f016020809104026020016040519081016040528092919081815260200182805461123190612dc8565b801561127e5780601f106112535761010080835404028352916020019161127e565b820191906000526020600020905b81548152906001019060200180831161126157829003601f168201915b505050505081565b6000606060008351116112ce576040517f08c379a00000000000000000000000000000000000000000000000000000000081526004016112c590612d79565b60405180910390fd5b6001600081546112dd906132e8565b91905081905591506000600660008481526020019081526020016000209050848160010160008201518160000160006101000a81548160ff021916908360f81c021790555060208201518160000160016101000a81548160ff021916908360f81c021790555060408201518160010155905050338160030160006101000a81548173ffffffffffffffffffffffffffffffffffffffff021916908373ffffffffffffffffffffffffffffffffffffffff1602179055506000845190508067ffffffffffffffff8111156113b3576113b2611ff1565b5b6040519080825280602002602001820160405280156113e657816020015b60608152602001906001900390816113d15790505b50925060005b8181101561163a57600086828151811061140957611408613077565b5b60200260200101519050600060056000838152602001908152602001600020805461143390612dc8565b905003611475576040517f08c379a000000000000000000000000000000000000000000000000000000000815260040161146c906130f2565b60405180910390fd5b8360000160018160018154018082558091505003906000526020600020905050808460000183815481106114ac576114ab613077565b5b90600052602060002090600302016000018190555060006004600083815260200190815260200160002090508080548060200260200160405190810160405280929190818152602001828054801561155957602002820191906000526020600020905b8160009054906101000a900473ffffffffffffffffffffffffffffffffffffffff1673ffffffffffffffffffffffffffffffffffffffff168152602001906001019080831161150f575b505050505086848151811061157157611570613077565b5b602002602001018190525060005b818054905081101561162a5781818154811061159e5761159d613077565b5b9060005260206000200160009054906101000a900473ffffffffffffffffffffffffffffffffffffffff1673ffffffffffffffffffffffffffffffffffffffff167f74b49f1dea9ab505bc114f53719a8c733dbca7d051df0d4a3481b83e02c352528988600101876040516116159392919061341f565b60405180910390a2808060010191505061157f565b50505080806001019150506113ec565b507ffb1a3f931d05d49010351f5c27030b1a623387afb8dc107f75378192dc9909f384878560405161166e93929190613456565b60405180910390a18360076000886040015181526020019081526020016000208190555050509250929050565b6116a3611db0565b600080600660008581526020019081526020016000209050806001018160030160009054906101000a900473ffffffffffffffffffffffffffffffffffffffff16816040518060600160405290816000820160009054906101000a900460f81b7effffffffffffffffffffffffffffffffffffffffffffffffffffffffffffff19167effffffffffffffffffffffffffffffffffffffffffffffffffffffffffffff191681526020016000820160019054906101000a900460f81b7effffffffffffffffffffffffffffffffffffffffffffffffffffffffffffff19167effffffffffffffffffffffffffffffffffffffffffffffffffffffffffffff1916815260200160018201548152505091509250925050915091565b60076020528060005260406000206000915090505481565b60026020528060005260406000206000915090508060000180546117f790612dc8565b80601f016020809104026020016040519081016040528092919081815260200182805461182390612dc8565b80156118705780601f1061184557610100808354040283529160200191611870565b820191906000526020600020905b81548152906001019060200180831161185357829003601f168201915b5050505050908060010154908060020160009054906101000a900460ff16905083565b600260003373ffffffffffffffffffffffffffffffffffffffff1673ffffffffffffffffffffffffffffffffffffffff16815260200190815260200160002060020160009054906101000a900460ff16611922576040517f08c379a000000000000000000000000000000000000000000000000000000000815260040161191990613236565b60405180910390fd5b600060066000868152602001908152602001600020905080600001805490508410611982576040517f08c379a0000000000000000000000000000000000000000000000000000000008152600401611979906134e0565b60405180910390fd5b600081600001858154811061199a57611999613077565b5b9060005260206000209060030201905060008160020160003373ffffffffffffffffffffffffffffffffffffffff1673ffffffffffffffffffffffffffffffffffffffff16815260200190815260200160002054905060008103611b8a578160010160405180606001604052803373ffffffffffffffffffffffffffffffffffffffff168152602001876002811115611a3657611a356123ad565b5b815260200186815250908060018154018082558091505060019003906000526020600020906003020160009091909190915060008201518160000160006101000a81548173ffffffffffffffffffffffffffffffffffffffff021916908373ffffffffffffffffffffffffffffffffffffffff16021790555060208201518160000160146101000a81548160ff02191690836002811115611ada57611ad96123ad565b5b021790555060408201518160010160008201518160000160006101000a81548160ff021916908360f81c021790555060208201518160000160016101000a81548160ff021916908360f81c0217905550604082015181600101555050505081600101805490508260020160003373ffffffffffffffffffffffffffffffffffffffff1673ffffffffffffffffffffffffffffffffffffffff16815260200190815260200160002081905550611c40565b600082600101600183611b9d9190613285565b81548110611bae57611bad613077565b5b90600052602060002090600302019050858160000160146101000a81548160ff02191690836002811115611be557611be46123ad565b5b0217905550848160010160008201518160000160006101000a81548160ff021916908360f81c021790555060208201518160000160016101000a81548160ff021916908360f81c021790555060408201518160010155905050505b7f5f3e857bb2fd6a5bd41b8e79b83418cb7635f5eaac6b6b6725483f0919da4b2f8784600101883388604051611c7a959493929190613500565b60405180910390a150505050505050565b828054828255906000526020600020908101928215611cc7579160200282015b82811115611cc6578251825591602001919060010190611cab565b5b509050611cd49190611e18565b5090565b604051806040016040528060008152602001606081525090565b6040518060a00160405280600073ffffffffffffffffffffffffffffffffffffffff168152602001606081526020016000815260200160006002811115611d3c57611d3b6123ad565b5b8152602001611d49611db0565b81525090565b5080546000825590600052602060002090810190611d6d9190611e18565b50565b508054611d7c90612dc8565b6000825580601f10611d8e5750611dad565b601f016020900490600052602060002090810190611dac9190611e18565b5b50565b604051806060016040528060007effffffffffffffffffffffffffffffffffffffffffffffffffffffffffffff1916815260200160007effffffffffffffffffffffffffffffffffffffffffffffffffffffffffffff19168152602001600080191681525090565b5b80821115611e31576000816000905550600101611e19565b5090565b6000819050919050565b611e4881611e35565b82525050565b6000602082019050611e636000830184611e3f565b92915050565b6000604051905090565b600080fd5b600080fd5b611e8681611e35565b8114611e9157600080fd5b50565b600081359050611ea381611e7d565b92915050565b600060208284031215611ebf57611ebe611e73565b5b6000611ecd84828501611e94565b91505092915050565b60007fff0000000000000000000000000000000000000000000000000000000000000082169050919050565b611f0b81611ed6565b82525050565b6000819050919050565b611f2481611f11565b82525050565b606082016000820151611f406000850182611f02565b506020820151611f536020850182611f02565b506040820151611f666040850182611f1b565b50505050565b600073ffffffffffffffffffffffffffffffffffffffff82169050919050565b6000611f9782611f6c565b9050919050565b611fa781611f8c565b82525050565b6000608082019050611fc26000830185611f2a565b611fcf6060830184611f9e565b9392505050565b600080fd5b600080fd5b6000601f19601f8301169050919050565b7f4e487b7100000000000000000000000000000000000000000000000000000000600052604160045260246000fd5b61202982611fe0565b810181811067ffffffffffffffff8211171561204857612047611ff1565b5b80604052505050565b600061205b611e69565b90506120678282612020565b919050565b600067ffffffffffffffff82111561208757612086611ff1565b5b61209082611fe0565b9050602081019050919050565b82818337600083830152505050565b60006120bf6120ba8461206c565b612051565b9050828152602081018484840111156120db576120da611fdb565b5b6120e684828561209d565b509392505050565b600082601f83011261210357612102611fd6565b5b81356121138482602086016120ac565b91505092915050565b600067ffffffffffffffff82111561213757612136611ff1565b5b602082029050602081019050919050565b600080fd5b600061216061215b8461211c565b612051565b9050808382526020820190506020840283018581111561218357612182612148565b5b835b818110156121ac57806121988882611e94565b845260208401935050602081019050612185565b5050509392505050565b600082601f8301126121cb576121ca611fd6565b5b81356121db84826020860161214d565b91505092915050565b600080604083850312156121fb576121fa611e73565b5b600083013567ffffffffffffffff81111561221957612218611e78565b5b612225858286016120ee565b925050602083013567ffffffffffffffff81111561224657612245611e78565b5b612252858286016121b6565b9150509250929050565b6000806040838503121561227357612272611e73565b5b600061228185828601611e94565b925050602083013567ffffffffffffffff8111156122a2576122a1611e78565b5b6122ae858286016120ee565b9150509250929050565b600081519050919050565b600082825260208201905092915050565b6000819050602082019050919050565b6122ed81611e35565b82525050565b600081519050919050565b600082825260208201905092915050565b6000819050602082019050919050565b61232881611f8c565b82525050565b600081519050919050565b600082825260208201905092915050565b60005b8381101561236857808201518184015260208101905061234d565b60008484015250505050565b600061237f8261232e565b6123898185612339565b935061239981856020860161234a565b6123a281611fe0565b840191505092915050565b7f4e487b7100000000000000000000000000000000000000000000000000000000600052602160045260246000fd5b600381106123ed576123ec6123ad565b5b50565b60008190506123fe826123dc565b919050565b600061240e826123f0565b9050919050565b61241e81612403565b82525050565b60608201600082015161243a6000850182611f02565b50602082015161244d6020850182611f02565b5060408201516124606040850182611f1b565b50505050565b600060e08301600083015161247e600086018261231f565b50602083015184820360208601526124968282612374565b91505060408301516124ab60408601826122e4565b5060608301516124be6060860182612415565b5060808301516124d16080860182612424565b508091505092915050565b60006124e88383612466565b905092915050565b6000602082019050919050565b6000612508826122f3565b61251281856122fe565b9350836020820285016125248561230f565b8060005b85811015612560578484038952815161254185826124dc565b945061254c836124f0565b925060208a01995050600181019050612528565b50829750879550505050505092915050565b600060408301600083015161258a60008601826122e4565b50602083015184820360208601526125a282826124fd565b9150508091505092915050565b60006125bb8383612572565b905092915050565b6000602082019050919050565b60006125db826122b8565b6125e581856122c3565b9350836020820285016125f7856122d4565b8060005b85811015612633578484038952815161261485826125af565b945061261f836125c3565b925060208a019950506001810190506125fb565b50829750879550505050505092915050565b6000602082019050818103600083015261265f81846125d0565b905092915050565b61267081611f8c565b811461267b57600080fd5b50565b60008135905061268d81612667565b92915050565b600080604083850312156126aa576126a9611e73565b5b60006126b88582860161267e565b92505060206126c985828601611e94565b9150509250929050565b60006020820190506126e86000830184611f9e565b92915050565b600081519050919050565b600082825260208201905092915050565b6000819050602082019050919050565b6000612726838361231f565b60208301905092915050565b6000602082019050919050565b600061274a826126ee565b61275481856126f9565b935061275f8361270a565b8060005b83811015612790578151612777888261271a565b975061278283612732565b925050600181019050612763565b5085935050505092915050565b600060208201905081810360008301526127b7818461273f565b905092915050565b600080fd5b6127cd81611ed6565b81146127d857600080fd5b50565b6000813590506127ea816127c4565b92915050565b6127f981611f11565b811461280457600080fd5b50565b600081359050612816816127f0565b92915050565b600060608284031215612832576128316127bf565b5b61283c6060612051565b9050600061284c848285016127db565b6000830152506020612860848285016127db565b602083015250604061287484828501612807565b60408301525092915050565b60006060828403121561289657612895611e73565b5b60006128a48482850161281c565b91505092915050565b600080604083850312156128c4576128c3611e73565b5b60006128d285828601611e94565b92505060206128e385828601611e94565b9150509250929050565b600082825260208201905092915050565b60006129098261232e565b61291381856128ed565b935061292381856020860161234a565b61292c81611fe0565b840191505092915050565b6000602082019050818103600083015261295181846128fe565b905092915050565b600080608083850312156129705761296f611e73565b5b600061297e8582860161281c565b925050606083013567ffffffffffffffff81111561299f5761299e611e78565b5b6129ab858286016121b6565b9150509250929050565b600081519050919050565b600082825260208201905092915050565b6000819050602082019050919050565b600082825260208201905092915050565b60006129fd826126ee565b612a0781856129e1565b9350612a128361270a565b8060005b83811015612a43578151612a2a888261271a565b9750612a3583612732565b925050600181019050612a16565b5085935050505092915050565b6000612a5c83836129f2565b905092915050565b6000602082019050919050565b6000612a7c826129b5565b612a8681856129c0565b935083602082028501612a98856129d1565b8060005b85811015612ad45784840389528151612ab58582612a50565b9450612ac083612a64565b925060208a01995050600181019050612a9c565b50829750879550505050505092915050565b6000604082019050612afb6000830185611e3f565b8181036020830152612b0d8184612a71565b90509392505050565b600060208284031215612b2c57612b2b611e73565b5b6000612b3a84828501612807565b91505092915050565b600060208284031215612b5957612b58611e73565b5b6000612b678482850161267e565b91505092915050565b60008115159050919050565b612b8581612b70565b82525050565b60006060820190508181036000830152612ba581866128fe565b9050612bb46020830185611e3f565b612bc16040830184612b7c565b949350505050565b60038110612bd657600080fd5b50565b600081359050612be881612bc9565b92915050565b60008060008060c08587031215612c0857612c07611e73565b5b6000612c1687828801611e94565b9450506020612c2787828801611e94565b9350506040612c3887828801612bd9565b9250506060612c498782880161281c565b91505092959194509250565b7f416c72656164792076616c696461746f72000000000000000000000000000000600082015250565b6000612c8b6011836128ed565b9150612c9682612c55565b602082019050919050565b60006020820190508181036000830152612cba81612c7e565b9050919050565b7f496e76616c696420646f6d61696e000000000000000000000000000000000000600082015250565b6000612cf7600e836128ed565b9150612d0282612cc1565b602082019050919050565b60006020820190508181036000830152612d2681612cea565b9050919050565b7f4e6f2063617465676f7269657300000000000000000000000000000000000000600082015250565b6000612d63600d836128ed565b9150612d6e82612d2d565b602082019050919050565b60006020820190508181036000830152612d9281612d56565b9050919050565b7f4e487b7100000000000000000000000000000000000000000000000000000000600052602260045260246000fd5b60006002820490506001821680612de057607f821691505b602082108103612df357612df2612d99565b5b50919050565b60008190508160005260206000209050919050565b60006020601f8301049050919050565b600082821b905092915050565b600060088302612e5b7fffffffffffffffffffffffffffffffffffffffffffffffffffffffffffffffff82612e1e565b612e658683612e1e565b95508019841693508086168417925050509392505050565b6000819050919050565b6000612ea2612e9d612e9884611e35565b612e7d565b611e35565b9050919050565b6000819050919050565b612ebc83612e87565b612ed0612ec882612ea9565b848454612e2b565b825550505050565b600090565b612ee5612ed8565b612ef0818484612eb3565b505050565b5b81811015612f1457612f09600082612edd565b600181019050612ef6565b5050565b601f821115612f5957612f2a81612df9565b612f3384612e0e565b81016020851015612f42578190505b612f56612f4e85612e0e565b830182612ef5565b50505b505050565b600082821c905092915050565b6000612f7c60001984600802612f5e565b1980831691505092915050565b6000612f958383612f6b565b9150826002028217905092915050565b612fae8261232e565b67ffffffffffffffff811115612fc757612fc6611ff1565b5b612fd18254612dc8565b612fdc828285612f18565b600060209050601f83116001811461300f5760008415612ffd578287015190505b6130078582612f89565b86555061306f565b601f19841661301d86612df9565b60005b8281101561304557848901518255600182019150602085019450602081019050613020565b86831015613062578489015161305e601f891682612f6b565b8355505b6001600288020188555050505b505050505050565b7f4e487b7100000000000000000000000000000000000000000000000000000000600052603260045260246000fd5b7f43617465676f7279206e6f742065786973747300000000000000000000000000600082015250565b60006130dc6013836128ed565b91506130e7826130a6565b602082019050919050565b6000602082019050818103600083015261310b816130cf565b9050919050565b7f4f6e6c79206f776e657200000000000000000000000000000000000000000000600082015250565b6000613148600a836128ed565b915061315382613112565b602082019050919050565b600060208201905081810360008301526131778161313b565b9050919050565b7f43617465676f7279206578697374730000000000000000000000000000000000600082015250565b60006131b4600f836128ed565b91506131bf8261317e565b602082019050919050565b600060208201905081810360008301526131e3816131a7565b9050919050565b7f4e6f742076616c696461746f7200000000000000000000000000000000000000600082015250565b6000613220600d836128ed565b915061322b826131ea565b602082019050919050565b6000602082019050818103600083015261324f81613213565b9050919050565b7f4e487b7100000000000000000000000000000000000000000000000000000000600052601160045260246000fd5b600061329082611e35565b915061329b83611e35565b92508282039050818111156132b3576132b2613256565b5b92915050565b7f4e487b7100000000000000000000000000000000000000000000000000000000600052603160045260246000fd5b60006132f382611e35565b91507fffffffffffffffffffffffffffffffffffffffffffffffffffffffffffffffff820361332557613324613256565b5b600182019050919050565b60008160001c9050919050565b60008160f81b9050919050565b60006133558261333d565b9050919050565b600061336f61336a83613330565b61334a565b9050919050565b60008160081c9050919050565b600061339661339183613376565b61334a565b9050919050565b6000819050919050565b60006133ba6133b583613330565b61339d565b9050919050565b6060820160008083015490506133d68161335c565b6133e36000860182611f02565b506133ed81613383565b6133fa6020860182611f02565b506001830154905061340b816133a7565b6134186040860182611f1b565b5050505050565b600060a0820190506134346000830186611e3f565b61344160208301856133c1565b61344e6080830184611e3f565b949350505050565b600060a08201905061346b6000830186611e3f565b6134786020830185611f2a565b818103608083015261348a8184612a71565b9050949350505050565b7f496e76616c6964206173657274696f6e00000000000000000000000000000000600082015250565b60006134ca6010836128ed565b91506134d582613494565b602082019050919050565b600060208201905081810360008301526134f9816134bd565b9050919050565b6000610120820190506135166000830188611e3f565b61352360208301876133c1565b6135306080830186611e3f565b61353d60a0830185611f9e565b61354a60c0830184611f2a565b969550505050505056fea2646970667358221220eefde21198479c88c6e73d268aed57bd479608b282e2ddef0367de81134d0e6664736f6c634300081c0033",
  "linkReferences": {},
  "deployedLinkReferences": {}
}